:100000000C942A000C943F000C943F000C943F0089
:100010000C943F000C943F000C943F000C943F0064
:100020000C943F000C943F000C943F000C943F0054
:100030000C943F000C943F000C943F000C943F0044
:100040000C943F000C943F000C943F000C943F0034
:100050000C943F0011241FBECFE5D8E0DEBFCDBF1A
:1000600010E0A0E6B0E0E0EBF0E002C005900D92F9
:10007000A236B107D9F70E944C000C9456000C949C
:10008000000090BD89B988E18AB98EE880BD0895E5
:100090005D9BFECF8CB908958BE090E00E944100FB
:1000A0008091600090E00E9448000895F894FFCF8E
:0200B000090045
:00000001FF
